{
  "transactions": [
    {
      "hash": "0x41ebbfdc22cda829d3058f33df474c666d7252a469945db4eee017ebc459917d",
      "transactionType": "CALL",
      "contractName": null,
      "contractAddress": "0xe52de1801c10cf709cc8e62d43d783afe984b510",
      "function": "flaunch((string,string,string,uint256,uint256,uint256,address,uint24,uint256,bytes,bytes),address,bytes,(bytes32,string,uint256),(uint256,uint256,uint256,bytes32,string),(address,address,bytes,bytes))",
      "arguments": [
        "(DIOGE, DIOGE, data:application/json;base64,eyJuYW1lIjoiRElPR0UiLCJkZXNjcmlwdGlvbiI6IlRoZSBkb2dlIHRoYXQgZ2l2ZXMgemVybyBmKmNrcy4gT24gRmxhdW5jaC4gMTAwIHNlYXRzLiAxIHdpbm5lci4iLCJpbWFnZSI6Imh0dHBzOi8vYWdlbnR0di5saXZlL2Rpb2dlLmpwZyIsImV4dGVybmFsX3VybCI6Imh0dHBzOi8vdGFrZW92ZXIuZnVuIn0=, 50000000000000000000000000, 3600, 0, 0x6946Ee4dE034c554EFAb9Ca19CBA358368Aa7Eb7, 5000, 0, 0x000000000000000000000000000000000000000000000000000000003b9aca00, 0x)",
        "0x0000000000000000000000000000000000000000",
        "0x",
        "(0x0000000000000000000000000000000000000000000000000000000000000000, , 0)",
        "(0, 0, 0, 0x0000000000000000000000000000000000000000000000000000000000000000, )",
        "(0x0000000000000000000000000000000000000000, 0x0000000000000000000000000000000000000000, 0x, 0x)"
      ],
      "transaction": {
        "from": "0x6946ee4de034c554efab9ca19cba358368aa7eb7",
        "to": "0xe52de1801c10cf709cc8e62d43d783afe984b510",
        "gas": "0x25e683",
        "value": "0x0",
        "input": "0x9e5ffc2400000000000000000000000000000000000000000000000000000000000000c000000000000000000000000000000000000000000000000000000000000000000000000000000000000000000000000000000000000000000000000000000440000000000000000000000000000000000000000000000000000000000000046000000000000000000000000000000000000000000000000000000000000004e000000000000000000000000000000000000000000000000000000000000005a0000000000000000000000000000000000000000000000000000000000000016000000000000000000000000000000000000000000000000000000000000001a000000000000000000000000000000000000000000000000000000000000001e0000000000000000000000000000000000000000000295be96e640669720000000000000000000000000000000000000000000000000000000000000000000e1000000000000000000000000000000000000000000000000000000000000000000000000000000000000000006946ee4de034c554efab9ca19cba358368aa7eb70000000000000000000000000000000000000000000000000000000000001388000000000000000000000000000000000000000000000000000000000000000000000000000000000000000000000000000000000000000000000000000003200000000000000000000000000000000000000000000000000000000000000360000000000000000000000000000000000000000000000000000000000000000544494f4745000000000000000000000000000000000000000000000000000000000000000000000000000000000000000000000000000000000000000000000544494f47450000000000000000000000000000000000000000000000000000000000000000000000000000000000000000000000000000000000000000000109646174613a6170706c69636174696f6e2f6a736f6e3b6261736536342c65794a755957316c496a6f6952456c50523055694c434a6b5a584e6a636d6c7764476c7662694936496c526f5a53426b6232646c4948526f595851675a326c325a584d67656d56796279426d4b6d4e726379346754323467526d78686457356a614334674d54417749484e6c5958527a4c69417849486470626d356c636934694c434a706257466e5a534936496d68306448427a4f6938765957646c626e52306469357361585a6c4c3252706232646c4c6d70775a794973496d563464475679626d46735833567962434936496d68306448427a4f693876644746725a5739325a5849755a6e5675496e303d00000000000000000000000000000000000000000000000000000000000000000000000000000000000000000000000000000000000020000000000000000000000000000000000000000000000000000000003b9aca00000000000000000000000000000000000000000000000000000000000000000000000000000000000000000000000000000000000000000000000000000000000000000000000000000000000000000000000000000000000000000000000000000000000000000000000000000000000000000000000000000000000000006000000000000000000000000000000000000000000000000000000000000000000000000000000000000000000000000000000000000000000000000000000000000000000000000000000000000000000000000000000000000000000000000000000000000000000000000000000000000000000000000000000000000000000000000000000000000000000000000000000000000000000000000000000000000000000000000000000000000000000000000000000000000000000000000000000000000000000000000000000000000000000000000000000000000000a0000000000000000000000000000000000000000000000000000000000000000000000000000000000000000000000000000000000000000000000000000000000000000000000000000000000000000000000000000000000000000000000000000000000000000000000000000000000000000000000000000000000000008000000000000000000000000000000000000000000000000000000000000000a000000000000000000000000000000000000000000000000000000000000000000000000000000000000000000000000000000000000000000000000000000000",
        "nonce": "0x2d",
        "chainId": "0x2105"
      },
      "additionalContracts": [
        {
          "transactionType": "CREATE2",
          "contractName": null,
          "address": "0x02e943a4593c97f88e9fc8cae402184f025d318d",
          "initCode": "0x602c3d8160093d39f33d3d3d3d363d3d37363d73f1eeeeeeecd95e9eb2df58484ceed175acbd945c5af43d3d93803e602a57fd5bf3"
        },
        {
          "transactionType": "CREATE2",
          "contractName": null,
          "address": "0xebd2c8a2271f2daeba2e88c3d21273447f84042d",
          "initCode": "0x602c3d8160093d39f33d3d3d3d363d3d37363d737397390360bd9d559d9277e60d47b999337912325af43d3d93803e602a57fd5bf3"
        }
      ],
      "isFixedGasLimit": false
    },
    {
      "hash": "0x8b099013b3f0d620860e7e7597dce0c5d47be399ca898d59996721f2c7e73f5f",
      "transactionType": "CALL",
      "contractName": null,
      "contractAddress": "0x516af52d0c629b5e378da4dc64ecb0744ce10109",
      "function": "approve(address,uint256)",
      "arguments": [
        "0x3d5EadF1585dC98eD306C81214574F75a99e8290",
        "10737"
      ],
      "transaction": {
        "from": "0x6946ee4de034c554efab9ca19cba358368aa7eb7",
        "to": "0x516af52d0c629b5e378da4dc64ecb0744ce10109",
        "gas": "0x10471",
        "value": "0x0",
        "input": "0x095ea7b30000000000000000000000003d5eadf1585dc98ed306c81214574f75a99e829000000000000000000000000000000000000000000000000000000000000029f1",
        "nonce": "0x2e",
        "chainId": "0x2105"
      },
      "additionalContracts": [],
      "isFixedGasLimit": false
    },
    {
      "hash": "0xf1c2002ee1fd6cf4b0f4da9233bfd3483c13e9ea27041b6661eee8d56d6b9379",
      "transactionType": "CALL",
      "contractName": null,
      "contractAddress": "0x833589fcd6edb6e08f4c7c32d4f71b54bda02913",
      "function": "approve(address,uint256)",
      "arguments": [
        "0x3d5EadF1585dC98eD306C81214574F75a99e8290",
        "2000000"
      ],
      "transaction": {
        "from": "0x6946ee4de034c554efab9ca19cba358368aa7eb7",
        "to": "0x833589fcd6edb6e08f4c7c32d4f71b54bda02913",
        "gas": "0x12b1b",
        "value": "0x0",
        "input": "0x095ea7b30000000000000000000000003d5eadf1585dc98ed306c81214574f75a99e829000000000000000000000000000000000000000000000000000000000001e8480",
        "nonce": "0x2f",
        "chainId": "0x2105"
      },
      "additionalContracts": [],
      "isFixedGasLimit": false
    },
    {
      "hash": "0x28d77f7c189cd6e4550a8df5edbde96b51f7c665dce4a716b249fdfc533fb03d",
      "transactionType": "CALL",
      "contractName": null,
      "contractAddress": "0x3d5eadf1585dc98ed306c81214574f75a99e8290",
      "function": "importWithSeats(address,uint256,(uint256,uint256,uint256)[])",
      "arguments": [
        "0x516af52D0c629B5E378DA4DC64Ecb0744cE10109",
        "10737",
        "[(0, 1000000, 100000), (1, 1000000, 100000), (2, 1000000, 100000), (3, 1000000, 100000), (4, 1000000, 100000), (5, 1000000, 100000), (6, 1000000, 100000), (7, 1000000, 100000), (8, 1000000, 100000), (9, 1000000, 100000), (10, 1000000, 100000), (11, 1000000, 100000), (12, 1000000, 100000), (13, 1000000, 100000), (14, 1000000, 100000), (15, 1000000, 100000), (16, 1000000, 100000), (17, 1000000, 100000), (18, 1000000, 100000), (19, 1000000, 100000)]"
      ],
      "transaction": {
        "from": "0x6946ee4de034c554efab9ca19cba358368aa7eb7",
        "to": "0x3d5eadf1585dc98ed306c81214574f75a99e8290",
        "gas": "0x3ec029",
        "value": "0x0",
        "input": "0xee770038000000000000000000000000516af52d0c629b5e378da4dc64ecb0744ce1010900000000000000000000000000000000000000000000000000000000000029f100000000000000000000000000000000000000000000000000000000000000600000000000000000000000000000000000000000000000000000000000000014000000000000000000000000000000000000000000000000000000000000000000000000000000000000000000000000000000000000000000000000000f424000000000000000000000000000000000000000000000000000000000000186a0000000000000000000000000000000000000000000000000000000000000000100000000000000000000000000000000000000000000000000000000000f424000000000000000000000000000000000000000000000000000000000000186a0000000000000000000000000000000000000000000000000000000000000000200000000000000000000000000000000000000000000000000000000000f424000000000000000000000000000000000000000000000000000000000000186a0000000000000000000000000000000000000000000000000000000000000000300000000000000000000000000000000000000000000000000000000000f424000000000000000000000000000000000000000000000000000000000000186a0000000000000000000000000000000000000000000000000000000000000000400000000000000000000000000000000000000000000000000000000000f424000000000000000000000000000000000000000000000000000000000000186a0000000000000000000000000000000000000000000000000000000000000000500000000000000000000000000000000000000000000000000000000000f424000000000000000000000000000000000000000000000000000000000000186a0000000000000000000000000000000000000000000000000000000000000000600000000000000000000000000000000000000000000000000000000000f424000000000000000000000000000000000000000000000000000000000000186a0000000000000000000000000000000000000000000000000000000000000000700000000000000000000000000000000000000000000000000000000000f424000000000000000000000000000000000000000000000000000000000000186a0000000000000000000000000000000000000000000000000000000000000000800000000000000000000000000000000000000000000000000000000000f424000000000000000000000000000000000000000000000000000000000000186a0000000000000000000000000000000000000000000000000000000000000000900000000000000000000000000000000000000000000000000000000000f424000000000000000000000000000000000000000000000000000000000000186a0000000000000000000000000000000000000000000000000000000000000000a00000000000000000000000000000000000000000000000000000000000f424000000000000000000000000000000000000000000000000000000000000186a0000000000000000000000000000000000000000000000000000000000000000b00000000000000000000000000000000000000000000000000000000000f424000000000000000000000000000000000000000000000000000000000000186a0000000000000000000000000000000000000000000000000000000000000000c00000000000000000000000000000000000000000000000000000000000f424000000000000000000000000000000000000000000000000000000000000186a0000000000000000000000000000000000000000000000000000000000000000d00000000000000000000000000000000000000000000000000000000000f424000000000000000000000000000000000000000000000000000000000000186a0000000000000000000000000000000000000000000000000000000000000000e00000000000000000000000000000000000000000000000000000000000f424000000000000000000000000000000000000000000000000000000000000186a0000000000000000000000000000000000000000000000000000000000000000f00000000000000000000000000000000000000000000000000000000000f424000000000000000000000000000000000000000000000000000000000000186a0000000000000000000000000000000000000000000000000000000000000001000000000000000000000000000000000000000000000000000000000000f424000000000000000000000000000000000000000000000000000000000000186a0000000000000000000000000000000000000000000000000000000000000001100000000000000000000000000000000000000000000000000000000000f424000000000000000000000000000000000000000000000000000000000000186a0000000000000000000000000000000000000000000000000000000000000001200000000000000000000000000000000000000000000000000000000000f424000000000000000000000000000000000000000000000000000000000000186a0000000000000000000000000000000000000000000000000000000000000001300000000000000000000000000000000000000000000000000000000000f424000000000000000000000000000000000000000000000000000000000000186a0",
        "nonce": "0x30",
        "chainId": "0x2105"
      },
      "additionalContracts": [],
      "isFixedGasLimit": false
    }
  ],
  "receipts": [
    {
      "status": "0x1",
      "cumulativeGasUsed": "0x15e041b",
      "logs": [
        {
          "address": "0x516af52d0c629b5e378da4dc64ecb0744ce10109",
          "topics": [
            "0xddf252ad1be2c89b69c2b068fc378daa952ba7f163c4a11628f55a4df523b3ef",
            "0x0000000000000000000000000000000000000000000000000000000000000000",
            "0x0000000000000000000000006946ee4de034c554efab9ca19cba358368aa7eb7",
            "0x00000000000000000000000000000000000000000000000000000000000029f1"
          ],
          "data": "0x",
          "blockHash": "0x0eff4171050f5d9cf80b3ce95c0c9892cca3c68df52242d9d715bfcb797541a8",
          "blockNumber": "0x28a99f0",
          "blockTimestamp": "0x699f90c3",
          "transactionHash": "0x41ebbfdc22cda829d3058f33df474c666d7252a469945db4eee017ebc459917d",
          "transactionIndex": "0x79",
          "logIndex": "0x1b7",
          "removed": false
        },
        {
          "address": "0x02e943a4593c97f88e9fc8cae402184f025d318d",
          "topics": [
            "0x7f26b83ff96e1f2b6a682f133852f6798a09c465da95921460cefb3847402498"
          ],
          "data": "0x0000000000000000000000000000000000000000000000000000000000000001",
          "blockHash": "0x0eff4171050f5d9cf80b3ce95c0c9892cca3c68df52242d9d715bfcb797541a8",
          "blockNumber": "0x28a99f0",
          "blockTimestamp": "0x699f90c3",
          "transactionHash": "0x41ebbfdc22cda829d3058f33df474c666d7252a469945db4eee017ebc459917d",
          "transactionIndex": "0x79",
          "logIndex": "0x1b8",
          "removed": false
        },
        {
          "address": "0x02e943a4593c97f88e9fc8cae402184f025d318d",
          "topics": [
            "0xddf252ad1be2c89b69c2b068fc378daa952ba7f163c4a11628f55a4df523b3ef",
            "0x0000000000000000000000000000000000000000000000000000000000000000",
            "0x00000000000000000000000023321f11a6d44fd1ab790044fdfde5758c902fdc"
          ],
          "data": "0x0000000000000000000000000000000000000001431e0fae6d7217caa0000000",
          "blockHash": "0x0eff4171050f5d9cf80b3ce95c0c9892cca3c68df52242d9d715bfcb797541a8",
          "blockNumber": "0x28a99f0",
          "blockTimestamp": "0x699f90c3",
          "transactionHash": "0x41ebbfdc22cda829d3058f33df474c666d7252a469945db4eee017ebc459917d",
          "transactionIndex": "0x79",
          "logIndex": "0x1b9",
          "removed": false
        },
        {
          "address": "0x02e943a4593c97f88e9fc8cae402184f025d318d",
          "topics": [
            "0x3134e8a2e6d97e929a7e54011ea5485d7d196dd5f0ba4d4ef95803e8e3fc257f",
            "0x00000000000000000000000023321f11a6d44fd1ab790044fdfde5758c902fdc",
            "0x0000000000000000000000000000000000000000000000000000000000000000",
            "0x00000000000000000000000023321f11a6d44fd1ab790044fdfde5758c902fdc"
          ],
          "data": "0x",
          "blockHash": "0x0eff4171050f5d9cf80b3ce95c0c9892cca3c68df52242d9d715bfcb797541a8",
          "blockNumber": "0x28a99f0",
          "blockTimestamp": "0x699f90c3",
          "transactionHash": "0x41ebbfdc22cda829d3058f33df474c666d7252a469945db4eee017ebc459917d",
          "transactionIndex": "0x79",
          "logIndex": "0x1ba",
          "removed": false
        },
        {
          "address": "0x02e943a4593c97f88e9fc8cae402184f025d318d",
          "topics": [
            "0xdec2bacdd2f05b59de34da9b523dff8be42e5e38e818c82fdb0bae774387a724",
            "0x00000000000000000000000023321f11a6d44fd1ab790044fdfde5758c902fdc"
          ],
          "data": "0x00000000000000000000000000000000000000000000000000000000000000000000000000000000000000000000000000000001431e0fae6d7217caa0000000",
          "blockHash": "0x0eff4171050f5d9cf80b3ce95c0c9892cca3c68df52242d9d715bfcb797541a8",
          "blockNumber": "0x28a99f0",
          "blockTimestamp": "0x699f90c3",
          "transactionHash": "0x41ebbfdc22cda829d3058f33df474c666d7252a469945db4eee017ebc459917d",
          "transactionIndex": "0x79",
          "logIndex": "0x1bb",
          "removed": false
        },
        {
          "address": "0xebd2c8a2271f2daeba2e88c3d21273447f84042d",
          "topics": [
            "0xc7f505b2f371ae2175ee4913f4499e1f2633a7b5936321eed1cdaeb6115181d2"
          ],
          "data": "0x0000000000000000000000000000000000000000000000000000000000000001",
          "blockHash": "0x0eff4171050f5d9cf80b3ce95c0c9892cca3c68df52242d9d715bfcb797541a8",
          "blockNumber": "0x28a99f0",
          "blockTimestamp": "0x699f90c3",
          "transactionHash": "0x41ebbfdc22cda829d3058f33df474c666d7252a469945db4eee017ebc459917d",
          "transactionIndex": "0x79",
          "logIndex": "0x1bc",
          "removed": false
        },
        {
          "address": "0x2a78ab6e2458e04284dfd5bbef21d660a5b7a26c",
          "topics": [
            "0x18e345d48e3703eb74c8cfb9e7d99696b4ce10aa454b7e4d97ae451f28ba87b3"
          ],
          "data": "0x4cc989b453367f187a50c934316393cfa6f43f8ea4b7f790047221e3af31d717000000000000000000000000000000000000000000000000000000000000000000000000000000000000000000000000000000000000000000000000000000000000000000000000000000000000000000000000000000000000000000000000",
          "blockHash": "0x0eff4171050f5d9cf80b3ce95c0c9892cca3c68df52242d9d715bfcb797541a8",
          "blockNumber": "0x28a99f0",
          "blockTimestamp": "0x699f90c3",
          "transactionHash": "0x41ebbfdc22cda829d3058f33df474c666d7252a469945db4eee017ebc459917d",
          "transactionIndex": "0x79",
          "logIndex": "0x1bd",
          "removed": false
        },
        {
          "address": "0x498581ff718922c3f8e6a244956af099b2652b2b",
          "topics": [
            "0xdd466e674ea557f56295e2d0218a125ea4b4f0f6f3307b95f85e6110838d6438",
            "0x4cc989b453367f187a50c934316393cfa6f43f8ea4b7f790047221e3af31d717",
            "0x000000000000000000000000000000000d564d5be76f7f0d28fe52605afc7cf8",
            "0x00000000000000000000000002e943a4593c97f88e9fc8cae402184f025d318d"
          ],
          "data": "0x0000000000000000000000000000000000000000000000000000000000000000000000000000000000000000000000000000000000000000000000000000003c00000000000000000000000023321f11a6d44fd1ab790044fdfde5758c902fdc000000000000000000000000000000000006ea5587884bc4bf71f4541c00405d000000000000000000000000000000000000000000000000000000000003f98f",
          "blockHash": "0x0eff4171050f5d9cf80b3ce95c0c9892cca3c68df52242d9d715bfcb797541a8",
          "blockNumber": "0x28a99f0",
          "blockTimestamp": "0x699f90c3",
          "transactionHash": "0x41ebbfdc22cda829d3058f33df474c666d7252a469945db4eee017ebc459917d",
          "transactionIndex": "0x79",
          "logIndex": "0x1be",
          "removed": false
        },
        {
          "address": "0x23321f11a6d44fd1ab790044fdfde5758c902fdc",
          "topics": [
            "0x54976b48704e67457d6a85a2db51d6e760bbeddf6151f9206512108adce80b42",
            "0x4cc989b453367f187a50c934316393cfa6f43f8ea4b7f790047221e3af31d717"
          ],
          "data": "0x00000000000000000000000002e943a4593c97f88e9fc8cae402184f025d318d000000000000000000000000ebd2c8a2271f2daeba2e88c3d21273447f84042d00000000000000000000000000000000000000000000000000000000000029f10000000000000000000000000000000000000000000000000000000000000000000000000000000000000000000000000000000000000000000000000000000000000000000000000000000000000000000000000000000000000000000000c0000000000000000000000000000000000000000000000000000000000000016000000000000000000000000000000000000000000000000000000000000001a000000000000000000000000000000000000000000000000000000000000001e0000000000000000000000000000000000000000000295be96e640669720000000000000000000000000000000000000000000000000000000000000000000e1000000000000000000000000000000000000000000000000000000000000000000000000000000000000000006946ee4de034c554efab9ca19cba358368aa7eb70000000000000000000000000000000000000000000000000000000000001388000000000000000000000000000000000000000000000000000000000000000000000000000000000000000000000000000000000000000000000000000003200000000000000000000000000000000000000000000000000000000000000360000000000000000000000000000000000000000000000000000000000000000544494f4745000000000000000000000000000000000000000000000000000000000000000000000000000000000000000000000000000000000000000000000544494f47450000000000000000000000000000000000000000000000000000000000000000000000000000000000000000000000000000000000000000000109646174613a6170706c69636174696f6e2f6a736f6e3b6261736536342c65794a755957316c496a6f6952456c50523055694c434a6b5a584e6a636d6c7764476c7662694936496c526f5a53426b6232646c4948526f595851675a326c325a584d67656d56796279426d4b6d4e726379346754323467526d78686457356a614334674d54417749484e6c5958527a4c69417849486470626d356c636934694c434a706257466e5a534936496d68306448427a4f6938765957646c626e52306469357361585a6c4c3252706232646c4c6d70775a794973496d563464475679626d46735833567962434936496d68306448427a4f693876644746725a5739325a5849755a6e5675496e303d00000000000000000000000000000000000000000000000000000000000000000000000000000000000000000000000000000000000020000000000000000000000000000000000000000000000000000000003b9aca000000000000000000000000000000000000000000000000000000000000000000",
          "blockHash": "0x0eff4171050f5d9cf80b3ce95c0c9892cca3c68df52242d9d715bfcb797541a8",
          "blockNumber": "0x28a99f0",
          "blockTimestamp": "0x699f90c3",
          "transactionHash": "0x41ebbfdc22cda829d3058f33df474c666d7252a469945db4eee017ebc459917d",
          "transactionIndex": "0x79",
          "logIndex": "0x1bf",
          "removed": false
        },
        {
          "address": "0x02e943a4593c97f88e9fc8cae402184f025d318d",
          "topics": [
            "0x8c5be1e5ebec7d5bd14f71427d1e84f3dd0314c0f7b2291e5b200ac8c7c3b925",
            "0x00000000000000000000000023321f11a6d44fd1ab790044fdfde5758c902fdc",
            "0x0000000000000000000000004dc442403e8c758425b93c59dc737da522f32640"
          ],
          "data": "0xffffffffffffffffffffffffffffffffffffffffffffffffffffffffffffffff",
          "blockHash": "0x0eff4171050f5d9cf80b3ce95c0c9892cca3c68df52242d9d715bfcb797541a8",
          "blockNumber": "0x28a99f0",
          "blockTimestamp": "0x699f90c3",
          "transactionHash": "0x41ebbfdc22cda829d3058f33df474c666d7252a469945db4eee017ebc459917d",
          "transactionIndex": "0x79",
          "logIndex": "0x1c0",
          "removed": false
        },
        {
          "address": "0x4dc442403e8c758425b93c59dc737da522f32640",
          "topics": [
            "0x0935055505897986a1e75d206c9f6c9ff968893b8820199e8d781008b03550a8",
            "0x4cc989b453367f187a50c934316393cfa6f43f8ea4b7f790047221e3af31d717"
          ],
          "data": "0x000000000000000000000000000000000000000000295be96e6406697200000000000000000000000000000000000000000000000000000000000000699f90c300000000000000000000000000000000000000000000000000000000699f9ed3",
          "blockHash": "0x0eff4171050f5d9cf80b3ce95c0c9892cca3c68df52242d9d715bfcb797541a8",
          "blockNumber": "0x28a99f0",
          "blockTimestamp": "0x699f90c3",
          "transactionHash": "0x41ebbfdc22cda829d3058f33df474c666d7252a469945db4eee017ebc459917d",
          "transactionIndex": "0x79",
          "logIndex": "0x1c1",
          "removed": false
        },
        {
          "address": "0x23321f11a6d44fd1ab790044fdfde5758c902fdc",
          "topics": [
            "0x1a111a34a945a6d821c9dc87031a478ad3107acb9b19f2ee72d3aaa72b0849c9",
            "0x4cc989b453367f187a50c934316393cfa6f43f8ea4b7f790047221e3af31d717"
          ],
          "data": "0x000000000000000000000000000000000006ea5587884bc4bf71f4541c00405d000000000000000000000000000000000000000000000000000000000003f98f000000000000000000000000000000000000000000000000000000000000000000000000000000000000000000000000000000000000000000000000000000000000000000000000000000000000000000000000000000000000000000000000",
          "blockHash": "0x0eff4171050f5d9cf80b3ce95c0c9892cca3c68df52242d9d715bfcb797541a8",
          "blockNumber": "0x28a99f0",
          "blockTimestamp": "0x699f90c3",
          "transactionHash": "0x41ebbfdc22cda829d3058f33df474c666d7252a469945db4eee017ebc459917d",
          "transactionIndex": "0x79",
          "logIndex": "0x1c2",
          "removed": false
        }
      ],
      "logsBloom": "0x00000000000000802000000000002002002020000000000000000000000000000000000000008200000011000000000000022000410000000000000000200000020000000000002001000028100000000000000000000000000000000000000000000000124000020040000002000808008500100000002000000010000000000000004800405008000a10000000000000000801000080000000800400200000060102080000000000200000400400000004000000000000000000000000000040000002000000010000000000040000000800000004000000000100000030080010001400000000000000000001000100000400000000000000000000000400",
      "type": "0x2",
      "transactionHash": "0x41ebbfdc22cda829d3058f33df474c666d7252a469945db4eee017ebc459917d",
      "transactionIndex": "0x79",
      "blockHash": "0x0eff4171050f5d9cf80b3ce95c0c9892cca3c68df52242d9d715bfcb797541a8",
      "blockNumber": "0x28a99f0",
      "gasUsed": "0x19e5a6",
      "effectiveGasPrice": "0x641d5e",
      "blobGasUsed": "0xe03f",
      "from": "0x6946ee4de034c554efab9ca19cba358368aa7eb7",
      "to": "0xe52de1801c10cf709cc8e62d43d783afe984b510",
      "contractAddress": null,
      "daFootprintGasScalar": "0x8b",
      "l1BaseFeeScalar": "0x8dd",
      "l1BlobBaseFee": "0x8d5287",
      "l1BlobBaseFeeScalar": "0x101c12",
      "l1Fee": "0x2169d9f69",
      "l1GasPrice": "0x13936feb",
      "l1GasUsed": "0x19d4"
    },
    {
      "status": "0x1",
      "cumulativeGasUsed": "0xf8edf5",
      "logs": [
        {
          "address": "0x516af52d0c629b5e378da4dc64ecb0744ce10109",
          "topics": [
            "0x8c5be1e5ebec7d5bd14f71427d1e84f3dd0314c0f7b2291e5b200ac8c7c3b925",
            "0x0000000000000000000000006946ee4de034c554efab9ca19cba358368aa7eb7",
            "0x0000000000000000000000003d5eadf1585dc98ed306c81214574f75a99e8290",
            "0x00000000000000000000000000000000000000000000000000000000000029f1"
          ],
          "data": "0x",
          "blockHash": "0xfc0112d0d81b83602120bcb34eb57e7b64e0f05332a3ecba67426abfc4cb3d28",
          "blockNumber": "0x28a99f2",
          "blockTimestamp": "0x699f90c7",
          "transactionHash": "0x8b099013b3f0d620860e7e7597dce0c5d47be399ca898d59996721f2c7e73f5f",
          "transactionIndex": "0x35",
          "logIndex": "0x1b7",
          "removed": false
        }
      ],
      "logsBloom": "0x02000000000000000000000000000000000000000000000000000000000000000000000000008000000000000000000000000000000000000000000000210000020000000000000000000000000000000000000000000000000000000000000000000000000000000000000000000000008000100000000000000000000000000000000000001000000000000000000000000000000000000000000000000000020000000000000000200000000000000000000000000000000000000000000000000000000000000000000000000004000000000000000000000100000010000010001000000000000000000000000000000000000000000000000000000000",
      "type": "0x2",
      "transactionHash": "0x8b099013b3f0d620860e7e7597dce0c5d47be399ca898d59996721f2c7e73f5f",
      "transactionIndex": "0x35",
      "blockHash": "0xfc0112d0d81b83602120bcb34eb57e7b64e0f05332a3ecba67426abfc4cb3d28",
      "blockNumber": "0x28a99f2",
      "gasUsed": "0xbc8f",
      "effectiveGasPrice": "0x63e9b0",
      "blobGasUsed": "0x364c",
      "from": "0x6946ee4de034c554efab9ca19cba358368aa7eb7",
      "to": "0x516af52d0c629b5e378da4dc64ecb0744ce10109",
      "contractAddress": null,
      "daFootprintGasScalar": "0x8b",
      "l1BaseFeeScalar": "0x8dd",
      "l1BlobBaseFee": "0x8d5287",
      "l1BlobBaseFeeScalar": "0x101c12",
      "l1Fee": "0x8159ccf3",
      "l1GasPrice": "0x13936feb",
      "l1GasUsed": "0x640"
    },
    {
      "status": "0x1",
      "cumulativeGasUsed": "0x14abe67",
      "logs": [
        {
          "address": "0x833589fcd6edb6e08f4c7c32d4f71b54bda02913",
          "topics": [
            "0x8c5be1e5ebec7d5bd14f71427d1e84f3dd0314c0f7b2291e5b200ac8c7c3b925",
            "0x0000000000000000000000006946ee4de034c554efab9ca19cba358368aa7eb7",
            "0x0000000000000000000000003d5eadf1585dc98ed306c81214574f75a99e8290"
          ],
          "data": "0x00000000000000000000000000000000000000000000000000000000001e8480",
          "blockHash": "0xd721e657fb0afe0acd5fb46e14ab405c8305172f5c12658d61fd2a5a4ad77f13",
          "blockNumber": "0x28a99f3",
          "blockTimestamp": "0x699f90c9",
          "transactionHash": "0xf1c2002ee1fd6cf4b0f4da9233bfd3483c13e9ea27041b6661eee8d56d6b9379",
          "transactionIndex": "0x66",
          "logIndex": "0x205",
          "removed": false
        }
      ],
      "logsBloom": "0x02000000000000000000000000000000000000000000000000000000000000000000000000008000000000000000100000000000000000000000000000210000000000000000000000000000000000000000000000080000000000000000000000800000000000000000000000000000000000100000000000000000000000000000000000000000000000000000000000000000000000000000000000000000020000000000000000000000000000000000000000000000000000000000000000000000000000000000000000000004000000000000000000000100000000000010000000000000000000000000000000000000000000000000000000000000",
      "type": "0x2",
      "transactionHash": "0xf1c2002ee1fd6cf4b0f4da9233bfd3483c13e9ea27041b6661eee8d56d6b9379",
      "transactionIndex": "0x66",
      "blockHash": "0xd721e657fb0afe0acd5fb46e14ab405c8305172f5c12658d61fd2a5a4ad77f13",
      "blockNumber": "0x28a99f3",
      "gasUsed": "0xd88d",
      "effectiveGasPrice": "0x6400e0",
      "blobGasUsed": "0x364c",
      "from": "0x6946ee4de034c554efab9ca19cba358368aa7eb7",
      "to": "0x833589fcd6edb6e08f4c7c32d4f71b54bda02913",
      "contractAddress": null,
      "daFootprintGasScalar": "0x8b",
      "l1BaseFeeScalar": "0x8dd",
      "l1BlobBaseFee": "0x8d5287",
      "l1BlobBaseFeeScalar": "0x101c12",
      "l1Fee": "0x8159ccf3",
      "l1GasPrice": "0x13936feb",
      "l1GasUsed": "0x640"
    },
    {
      "status": "0x1",
      "cumulativeGasUsed": "0x1fb765e",
      "logs": [
        {
          "address": "0x516af52d0c629b5e378da4dc64ecb0744ce10109",
          "topics": [
            "0xddf252ad1be2c89b69c2b068fc378daa952ba7f163c4a11628f55a4df523b3ef",
            "0x0000000000000000000000006946ee4de034c554efab9ca19cba358368aa7eb7",
            "0x00000000000000000000000022c738ca7b87933949dedf66dc0d51f3f52f1bd6",
            "0x00000000000000000000000000000000000000000000000000000000000029f1"
          ],
          "data": "0x",
          "blockHash": "0x0000000000000000000000000000000000000000000000000000000000000000",
          "blockNumber": "0x28a99f5",
          "blockTimestamp": "0x699f90cd",
          "transactionHash": "0x28d77f7c189cd6e4550a8df5edbde96b51f7c665dce4a716b249fdfc533fb03d",
          "transactionIndex": "0x8a",
          "logIndex": "0x2c8",
          "removed": false
        },
        {
          "address": "0x833589fcd6edb6e08f4c7c32d4f71b54bda02913",
          "topics": [
            "0xddf252ad1be2c89b69c2b068fc378daa952ba7f163c4a11628f55a4df523b3ef",
            "0x0000000000000000000000006946ee4de034c554efab9ca19cba358368aa7eb7",
            "0x0000000000000000000000003d5eadf1585dc98ed306c81214574f75a99e8290"
          ],
          "data": "0x00000000000000000000000000000000000000000000000000000000001e8480",
          "blockHash": "0x0000000000000000000000000000000000000000000000000000000000000000",
          "blockNumber": "0x28a99f5",
          "blockTimestamp": "0x699f90cd",
          "transactionHash": "0x28d77f7c189cd6e4550a8df5edbde96b51f7c665dce4a716b249fdfc533fb03d",
          "transactionIndex": "0x8a",
          "logIndex": "0x2c9",
          "removed": false
        },
        {
          "address": "0x833589fcd6edb6e08f4c7c32d4f71b54bda02913",
          "topics": [
            "0x8c5be1e5ebec7d5bd14f71427d1e84f3dd0314c0f7b2291e5b200ac8c7c3b925",
            "0x0000000000000000000000003d5eadf1585dc98ed306c81214574f75a99e8290",
            "0x00000000000000000000000022c738ca7b87933949dedf66dc0d51f3f52f1bd6"
          ],
          "data": "0x00000000000000000000000000000000000000000000000000000000001e8480",
          "blockHash": "0x0000000000000000000000000000000000000000000000000000000000000000",
          "blockNumber": "0x28a99f5",
          "blockTimestamp": "0x699f90cd",
          "transactionHash": "0x28d77f7c189cd6e4550a8df5edbde96b51f7c665dce4a716b249fdfc533fb03d",
          "transactionIndex": "0x8a",
          "logIndex": "0x2ca",
          "removed": false
        },
        {
          "address": "0x22c738ca7b87933949dedf66dc0d51f3f52f1bd6",
          "topics": [
            "0xbf935925356a4b987cf86dda3b324a29c47a45769d96b8a2089888f2c176dfd4",
            "0x000000000000000000000000516af52d0c629b5e378da4dc64ecb0744ce10109",
            "0x00000000000000000000000000000000000000000000000000000000000029f1"
          ],
          "data": "0x0000000000000000000000006946ee4de034c554efab9ca19cba358368aa7eb70000000000000000000000003d5eadf1585dc98ed306c81214574f75a99e8290",
          "blockHash": "0x0000000000000000000000000000000000000000000000000000000000000000",
          "blockNumber": "0x28a99f5",
          "blockTimestamp": "0x699f90cd",
          "transactionHash": "0x28d77f7c189cd6e4550a8df5edbde96b51f7c665dce4a716b249fdfc533fb03d",
          "transactionIndex": "0x8a",
          "logIndex": "0x2cb",
          "removed": false
        },
        {
          "address": "0x22c738ca7b87933949dedf66dc0d51f3f52f1bd6",
          "topics": [
            "0xfafdbdd88ac30f0aa936e576be61816ea751908540523fa81b80c4a406ad7bec",
            "0x4cc989b453367f187a50c934316393cfa6f43f8ea4b7f790047221e3af31d717",
            "0x0000000000000000000000006946ee4de034c554efab9ca19cba358368aa7eb7"
          ],
          "data": "0x000000000000000000000000516af52d0c629b5e378da4dc64ecb0744ce10109",
          "blockHash": "0x0000000000000000000000000000000000000000000000000000000000000000",
          "blockNumber": "0x28a99f5",
          "blockTimestamp": "0x699f90cd",
          "transactionHash": "0x28d77f7c189cd6e4550a8df5edbde96b51f7c665dce4a716b249fdfc533fb03d",
          "transactionIndex": "0x8a",
          "logIndex": "0x2cc",
          "removed": false
        },
        {
          "address": "0x000000000d564d5be76f7f0d28fe52605afc7cf8",
          "topics": [
            "0xddf252ad1be2c89b69c2b068fc378daa952ba7f163c4a11628f55a4df523b3ef",
            "0x00000000000000000000000072e6f7948b1b1a343b477f39aabd2e35e6d27dde",
            "0x0000000000000000000000000000000000000000000000000000000000000000"
          ],
          "data": "0x000000000000000000000000000000000000000000000000002004fec2dc3425",
          "blockHash": "0x0000000000000000000000000000000000000000000000000000000000000000",
          "blockNumber": "0x28a99f5",
          "blockTimestamp": "0x699f90cd",
          "transactionHash": "0x28d77f7c189cd6e4550a8df5edbde96b51f7c665dce4a716b249fdfc533fb03d",
          "transactionIndex": "0x8a",
          "logIndex": "0x2cd",
          "removed": false
        },
        {
          "address": "0x72e6f7948b1b1a343b477f39aabd2e35e6d27dde",
          "topics": [
            "0x342e7ff505a8a0364cd0dc2ff195c315e43bce86b204846ecd36913e117b109e"
          ],
          "data": "0x00000000000000000000000022c738ca7b87933949dedf66dc0d51f3f52f1bd600000000000000000000000022c738ca7b87933949dedf66dc0d51f3f52f1bd60000000000000000000000000000000000000000000000000000000000000000000000000000000000000000000000000000000000000000002004fec2dc3425",
          "blockHash": "0x0000000000000000000000000000000000000000000000000000000000000000",
          "blockNumber": "0x28a99f5",
          "blockTimestamp": "0x699f90cd",
          "transactionHash": "0x28d77f7c189cd6e4550a8df5edbde96b51f7c665dce4a716b249fdfc533fb03d",
          "transactionIndex": "0x8a",
          "logIndex": "0x2ce",
          "removed": false
        },
        {
          "address": "0x833589fcd6edb6e08f4c7c32d4f71b54bda02913",
          "topics": [
            "0xddf252ad1be2c89b69c2b068fc378daa952ba7f163c4a11628f55a4df523b3ef",
            "0x0000000000000000000000003d5eadf1585dc98ed306c81214574f75a99e8290",
            "0x00000000000000000000000022c738ca7b87933949dedf66dc0d51f3f52f1bd6"
          ],
          "data": "0x00000000000000000000000000000000000000000000000000000000001e8480",
          "blockHash": "0x0000000000000000000000000000000000000000000000000000000000000000",
          "blockNumber": "0x28a99f5",
          "blockTimestamp": "0x699f90cd",
          "transactionHash": "0x28d77f7c189cd6e4550a8df5edbde96b51f7c665dce4a716b249fdfc533fb03d",
          "transactionIndex": "0x8a",
          "logIndex": "0x2cf",
          "removed": false
        },
        {
          "address": "0x22c738ca7b87933949dedf66dc0d51f3f52f1bd6",
          "topics": [
            "0xc7df5d57cebc855104b6814e67a49ad3e8e3f23a6c89013b8254de0c7a13c320",
            "0x4cc989b453367f187a50c934316393cfa6f43f8ea4b7f790047221e3af31d717",
            "0x0000000000000000000000000000000000000000000000000000000000000000",
            "0x0000000000000000000000006946ee4de034c554efab9ca19cba358368aa7eb7"
          ],
          "data": "0x00000000000000000000000000000000000000000000000000000000000f424000000000000000000000000000000000000000000000000000000000000186a0",
          "blockHash": "0x0000000000000000000000000000000000000000000000000000000000000000",
          "blockNumber": "0x28a99f5",
          "blockTimestamp": "0x699f90cd",
          "transactionHash": "0x28d77f7c189cd6e4550a8df5edbde96b51f7c665dce4a716b249fdfc533fb03d",
          "transactionIndex": "0x8a",
          "logIndex": "0x2d0",
          "removed": false
        },
        {
          "address": "0x22c738ca7b87933949dedf66dc0d51f3f52f1bd6",
          "topics": [
            "0xc7df5d57cebc855104b6814e67a49ad3e8e3f23a6c89013b8254de0c7a13c320",
            "0x4cc989b453367f187a50c934316393cfa6f43f8ea4b7f790047221e3af31d717",
            "0x0000000000000000000000000000000000000000000000000000000000000001",
            "0x0000000000000000000000006946ee4de034c554efab9ca19cba358368aa7eb7"
          ],
          "data": "0x00000000000000000000000000000000000000000000000000000000000f424000000000000000000000000000000000000000000000000000000000000186a0",
          "blockHash": "0x0000000000000000000000000000000000000000000000000000000000000000",
          "blockNumber": "0x28a99f5",
          "blockTimestamp": "0x699f90cd",
          "transactionHash": "0x28d77f7c189cd6e4550a8df5edbde96b51f7c665dce4a716b249fdfc533fb03d",
          "transactionIndex": "0x8a",
          "logIndex": "0x2d1",
          "removed": false
        },
        {
          "address": "0x22c738ca7b87933949dedf66dc0d51f3f52f1bd6",
          "topics": [
            "0xc7df5d57cebc855104b6814e67a49ad3e8e3f23a6c89013b8254de0c7a13c320",
            "0x4cc989b453367f187a50c934316393cfa6f43f8ea4b7f790047221e3af31d717",
            "0x0000000000000000000000000000000000000000000000000000000000000002",
            "0x0000000000000000000000006946ee4de034c554efab9ca19cba358368aa7eb7"
          ],
          "data": "0x00000000000000000000000000000000000000000000000000000000000f424000000000000000000000000000000000000000000000000000000000000186a0",
          "blockHash": "0x0000000000000000000000000000000000000000000000000000000000000000",
          "blockNumber": "0x28a99f5",
          "blockTimestamp": "0x699f90cd",
          "transactionHash": "0x28d77f7c189cd6e4550a8df5edbde96b51f7c665dce4a716b249fdfc533fb03d",
          "transactionIndex": "0x8a",
          "logIndex": "0x2d2",
          "removed": false
        },
        {
          "address": "0x22c738ca7b87933949dedf66dc0d51f3f52f1bd6",
          "topics": [
            "0xc7df5d57cebc855104b6814e67a49ad3e8e3f23a6c89013b8254de0c7a13c320",
            "0x4cc989b453367f187a50c934316393cfa6f43f8ea4b7f790047221e3af31d717",
            "0x0000000000000000000000000000000000000000000000000000000000000003",
            "0x0000000000000000000000006946ee4de034c554efab9ca19cba358368aa7eb7"
          ],
          "data": "0x00000000000000000000000000000000000000000000000000000000000f424000000000000000000000000000000000000000000000000000000000000186a0",
          "blockHash": "0x0000000000000000000000000000000000000000000000000000000000000000",
          "blockNumber": "0x28a99f5",
          "blockTimestamp": "0x699f90cd",
          "transactionHash": "0x28d77f7c189cd6e4550a8df5edbde96b51f7c665dce4a716b249fdfc533fb03d",
          "transactionIndex": "0x8a",
          "logIndex": "0x2d3",
          "removed": false
        },
        {
          "address": "0x22c738ca7b87933949dedf66dc0d51f3f52f1bd6",
          "topics": [
            "0xc7df5d57cebc855104b6814e67a49ad3e8e3f23a6c89013b8254de0c7a13c320",
            "0x4cc989b453367f187a50c934316393cfa6f43f8ea4b7f790047221e3af31d717",
            "0x0000000000000000000000000000000000000000000000000000000000000004",
            "0x0000000000000000000000006946ee4de034c554efab9ca19cba358368aa7eb7"
          ],
          "data": "0x00000000000000000000000000000000000000000000000000000000000f424000000000000000000000000000000000000000000000000000000000000186a0",
          "blockHash": "0x0000000000000000000000000000000000000000000000000000000000000000",
          "blockNumber": "0x28a99f5",
          "blockTimestamp": "0x699f90cd",
          "transactionHash": "0x28d77f7c189cd6e4550a8df5edbde96b51f7c665dce4a716b249fdfc533fb03d",
          "transactionIndex": "0x8a",
          "logIndex": "0x2d4",
          "removed": false
        },
        {
          "address": "0x22c738ca7b87933949dedf66dc0d51f3f52f1bd6",
          "topics": [
            "0xc7df5d57cebc855104b6814e67a49ad3e8e3f23a6c89013b8254de0c7a13c320",
            "0x4cc989b453367f187a50c934316393cfa6f43f8ea4b7f790047221e3af31d717",
            "0x0000000000000000000000000000000000000000000000000000000000000005",
            "0x0000000000000000000000006946ee4de034c554efab9ca19cba358368aa7eb7"
          ],
          "data": "0x00000000000000000000000000000000000000000000000000000000000f424000000000000000000000000000000000000000000000000000000000000186a0",
          "blockHash": "0x0000000000000000000000000000000000000000000000000000000000000000",
          "blockNumber": "0x28a99f5",
          "blockTimestamp": "0x699f90cd",
          "transactionHash": "0x28d77f7c189cd6e4550a8df5edbde96b51f7c665dce4a716b249fdfc533fb03d",
          "transactionIndex": "0x8a",
          "logIndex": "0x2d5",
          "removed": false
        },
        {
          "address": "0x22c738ca7b87933949dedf66dc0d51f3f52f1bd6",
          "topics": [
            "0xc7df5d57cebc855104b6814e67a49ad3e8e3f23a6c89013b8254de0c7a13c320",
            "0x4cc989b453367f187a50c934316393cfa6f43f8ea4b7f790047221e3af31d717",
            "0x0000000000000000000000000000000000000000000000000000000000000006",
            "0x0000000000000000000000006946ee4de034c554efab9ca19cba358368aa7eb7"
          ],
          "data": "0x00000000000000000000000000000000000000000000000000000000000f424000000000000000000000000000000000000000000000000000000000000186a0",
          "blockHash": "0x0000000000000000000000000000000000000000000000000000000000000000",
          "blockNumber": "0x28a99f5",
          "blockTimestamp": "0x699f90cd",
          "transactionHash": "0x28d77f7c189cd6e4550a8df5edbde96b51f7c665dce4a716b249fdfc533fb03d",
          "transactionIndex": "0x8a",
          "logIndex": "0x2d6",
          "removed": false
        },
        {
          "address": "0x22c738ca7b87933949dedf66dc0d51f3f52f1bd6",
          "topics": [
            "0xc7df5d57cebc855104b6814e67a49ad3e8e3f23a6c89013b8254de0c7a13c320",
            "0x4cc989b453367f187a50c934316393cfa6f43f8ea4b7f790047221e3af31d717",
            "0x0000000000000000000000000000000000000000000000000000000000000007",
            "0x0000000000000000000000006946ee4de034c554efab9ca19cba358368aa7eb7"
          ],
          "data": "0x00000000000000000000000000000000000000000000000000000000000f424000000000000000000000000000000000000000000000000000000000000186a0",
          "blockHash": "0x0000000000000000000000000000000000000000000000000000000000000000",
          "blockNumber": "0x28a99f5",
          "blockTimestamp": "0x699f90cd",
          "transactionHash": "0x28d77f7c189cd6e4550a8df5edbde96b51f7c665dce4a716b249fdfc533fb03d",
          "transactionIndex": "0x8a",
          "logIndex": "0x2d7",
          "removed": false
        },
        {
          "address": "0x22c738ca7b87933949dedf66dc0d51f3f52f1bd6",
          "topics": [
            "0xc7df5d57cebc855104b6814e67a49ad3e8e3f23a6c89013b8254de0c7a13c320",
            "0x4cc989b453367f187a50c934316393cfa6f43f8ea4b7f790047221e3af31d717",
            "0x0000000000000000000000000000000000000000000000000000000000000008",
            "0x0000000000000000000000006946ee4de034c554efab9ca19cba358368aa7eb7"
          ],
          "data": "0x00000000000000000000000000000000000000000000000000000000000f424000000000000000000000000000000000000000000000000000000000000186a0",
          "blockHash": "0x0000000000000000000000000000000000000000000000000000000000000000",
          "blockNumber": "0x28a99f5",
          "blockTimestamp": "0x699f90cd",
          "transactionHash": "0x28d77f7c189cd6e4550a8df5edbde96b51f7c665dce4a716b249fdfc533fb03d",
          "transactionIndex": "0x8a",
          "logIndex": "0x2d8",
          "removed": false
        },
        {
          "address": "0x22c738ca7b87933949dedf66dc0d51f3f52f1bd6",
          "topics": [
            "0xc7df5d57cebc855104b6814e67a49ad3e8e3f23a6c89013b8254de0c7a13c320",
            "0x4cc989b453367f187a50c934316393cfa6f43f8ea4b7f790047221e3af31d717",
            "0x0000000000000000000000000000000000000000000000000000000000000009",
            "0x0000000000000000000000006946ee4de034c554efab9ca19cba358368aa7eb7"
          ],
          "data": "0x00000000000000000000000000000000000000000000000000000000000f424000000000000000000000000000000000000000000000000000000000000186a0",
          "blockHash": "0x0000000000000000000000000000000000000000000000000000000000000000",
          "blockNumber": "0x28a99f5",
          "blockTimestamp": "0x699f90cd",
          "transactionHash": "0x28d77f7c189cd6e4550a8df5edbde96b51f7c665dce4a716b249fdfc533fb03d",
          "transactionIndex": "0x8a",
          "logIndex": "0x2d9",
          "removed": false
        },
        {
          "address": "0x22c738ca7b87933949dedf66dc0d51f3f52f1bd6",
          "topics": [
            "0xc7df5d57cebc855104b6814e67a49ad3e8e3f23a6c89013b8254de0c7a13c320",
            "0x4cc989b453367f187a50c934316393cfa6f43f8ea4b7f790047221e3af31d717",
            "0x000000000000000000000000000000000000000000000000000000000000000a",
            "0x0000000000000000000000006946ee4de034c554efab9ca19cba358368aa7eb7"
          ],
          "data": "0x00000000000000000000000000000000000000000000000000000000000f424000000000000000000000000000000000000000000000000000000000000186a0",
          "blockHash": "0x0000000000000000000000000000000000000000000000000000000000000000",
          "blockNumber": "0x28a99f5",
          "blockTimestamp": "0x699f90cd",
          "transactionHash": "0x28d77f7c189cd6e4550a8df5edbde96b51f7c665dce4a716b249fdfc533fb03d",
          "transactionIndex": "0x8a",
          "logIndex": "0x2da",
          "removed": false
        },
        {
          "address": "0x22c738ca7b87933949dedf66dc0d51f3f52f1bd6",
          "topics": [
            "0xc7df5d57cebc855104b6814e67a49ad3e8e3f23a6c89013b8254de0c7a13c320",
            "0x4cc989b453367f187a50c934316393cfa6f43f8ea4b7f790047221e3af31d717",
            "0x000000000000000000000000000000000000000000000000000000000000000b",
            "0x0000000000000000000000006946ee4de034c554efab9ca19cba358368aa7eb7"
          ],
          "data": "0x00000000000000000000000000000000000000000000000000000000000f424000000000000000000000000000000000000000000000000000000000000186a0",
          "blockHash": "0x0000000000000000000000000000000000000000000000000000000000000000",
          "blockNumber": "0x28a99f5",
          "blockTimestamp": "0x699f90cd",
          "transactionHash": "0x28d77f7c189cd6e4550a8df5edbde96b51f7c665dce4a716b249fdfc533fb03d",
          "transactionIndex": "0x8a",
          "logIndex": "0x2db",
          "removed": false
        },
        {
          "address": "0x22c738ca7b87933949dedf66dc0d51f3f52f1bd6",
          "topics": [
            "0xc7df5d57cebc855104b6814e67a49ad3e8e3f23a6c89013b8254de0c7a13c320",
            "0x4cc989b453367f187a50c934316393cfa6f43f8ea4b7f790047221e3af31d717",
            "0x000000000000000000000000000000000000000000000000000000000000000c",
            "0x0000000000000000000000006946ee4de034c554efab9ca19cba358368aa7eb7"
          ],
          "data": "0x00000000000000000000000000000000000000000000000000000000000f424000000000000000000000000000000000000000000000000000000000000186a0",
          "blockHash": "0x0000000000000000000000000000000000000000000000000000000000000000",
          "blockNumber": "0x28a99f5",
          "blockTimestamp": "0x699f90cd",
          "transactionHash": "0x28d77f7c189cd6e4550a8df5edbde96b51f7c665dce4a716b249fdfc533fb03d",
          "transactionIndex": "0x8a",
          "logIndex": "0x2dc",
          "removed": false
        },
        {
          "address": "0x22c738ca7b87933949dedf66dc0d51f3f52f1bd6",
          "topics": [
            "0xc7df5d57cebc855104b6814e67a49ad3e8e3f23a6c89013b8254de0c7a13c320",
            "0x4cc989b453367f187a50c934316393cfa6f43f8ea4b7f790047221e3af31d717",
            "0x000000000000000000000000000000000000000000000000000000000000000d",
            "0x0000000000000000000000006946ee4de034c554efab9ca19cba358368aa7eb7"
          ],
          "data": "0x00000000000000000000000000000000000000000000000000000000000f424000000000000000000000000000000000000000000000000000000000000186a0",
          "blockHash": "0x0000000000000000000000000000000000000000000000000000000000000000",
          "blockNumber": "0x28a99f5",
          "blockTimestamp": "0x699f90cd",
          "transactionHash": "0x28d77f7c189cd6e4550a8df5edbde96b51f7c665dce4a716b249fdfc533fb03d",
          "transactionIndex": "0x8a",
          "logIndex": "0x2dd",
          "removed": false
        },
        {
          "address": "0x22c738ca7b87933949dedf66dc0d51f3f52f1bd6",
          "topics": [
            "0xc7df5d57cebc855104b6814e67a49ad3e8e3f23a6c89013b8254de0c7a13c320",
            "0x4cc989b453367f187a50c934316393cfa6f43f8ea4b7f790047221e3af31d717",
            "0x000000000000000000000000000000000000000000000000000000000000000e",
            "0x0000000000000000000000006946ee4de034c554efab9ca19cba358368aa7eb7"
          ],
          "data": "0x00000000000000000000000000000000000000000000000000000000000f424000000000000000000000000000000000000000000000000000000000000186a0",
          "blockHash": "0x0000000000000000000000000000000000000000000000000000000000000000",
          "blockNumber": "0x28a99f5",
          "blockTimestamp": "0x699f90cd",
          "transactionHash": "0x28d77f7c189cd6e4550a8df5edbde96b51f7c665dce4a716b249fdfc533fb03d",
          "transactionIndex": "0x8a",
          "logIndex": "0x2de",
          "removed": false
        },
        {
          "address": "0x22c738ca7b87933949dedf66dc0d51f3f52f1bd6",
          "topics": [
            "0xc7df5d57cebc855104b6814e67a49ad3e8e3f23a6c89013b8254de0c7a13c320",
            "0x4cc989b453367f187a50c934316393cfa6f43f8ea4b7f790047221e3af31d717",
            "0x000000000000000000000000000000000000000000000000000000000000000f",
            "0x0000000000000000000000006946ee4de034c554efab9ca19cba358368aa7eb7"
          ],
          "data": "0x00000000000000000000000000000000000000000000000000000000000f424000000000000000000000000000000000000000000000000000000000000186a0",
          "blockHash": "0x0000000000000000000000000000000000000000000000000000000000000000",
          "blockNumber": "0x28a99f5",
          "blockTimestamp": "0x699f90cd",
          "transactionHash": "0x28d77f7c189cd6e4550a8df5edbde96b51f7c665dce4a716b249fdfc533fb03d",
          "transactionIndex": "0x8a",
          "logIndex": "0x2df",
          "removed": false
        },
        {
          "address": "0x22c738ca7b87933949dedf66dc0d51f3f52f1bd6",
          "topics": [
            "0xc7df5d57cebc855104b6814e67a49ad3e8e3f23a6c89013b8254de0c7a13c320",
            "0x4cc989b453367f187a50c934316393cfa6f43f8ea4b7f790047221e3af31d717",
            "0x0000000000000000000000000000000000000000000000000000000000000010",
            "0x0000000000000000000000006946ee4de034c554efab9ca19cba358368aa7eb7"
          ],
          "data": "0x00000000000000000000000000000000000000000000000000000000000f424000000000000000000000000000000000000000000000000000000000000186a0",
          "blockHash": "0x0000000000000000000000000000000000000000000000000000000000000000",
          "blockNumber": "0x28a99f5",
          "blockTimestamp": "0x699f90cd",
          "transactionHash": "0x28d77f7c189cd6e4550a8df5edbde96b51f7c665dce4a716b249fdfc533fb03d",
          "transactionIndex": "0x8a",
          "logIndex": "0x2e0",
          "removed": false
        },
        {
          "address": "0x22c738ca7b87933949dedf66dc0d51f3f52f1bd6",
          "topics": [
            "0xc7df5d57cebc855104b6814e67a49ad3e8e3f23a6c89013b8254de0c7a13c320",
            "0x4cc989b453367f187a50c934316393cfa6f43f8ea4b7f790047221e3af31d717",
            "0x0000000000000000000000000000000000000000000000000000000000000011",
            "0x0000000000000000000000006946ee4de034c554efab9ca19cba358368aa7eb7"
          ],
          "data": "0x00000000000000000000000000000000000000000000000000000000000f424000000000000000000000000000000000000000000000000000000000000186a0",
          "blockHash": "0x0000000000000000000000000000000000000000000000000000000000000000",
          "blockNumber": "0x28a99f5",
          "blockTimestamp": "0x699f90cd",
          "transactionHash": "0x28d77f7c189cd6e4550a8df5edbde96b51f7c665dce4a716b249fdfc533fb03d",
          "transactionIndex": "0x8a",
          "logIndex": "0x2e1",
          "removed": false
        },
        {
          "address": "0x22c738ca7b87933949dedf66dc0d51f3f52f1bd6",
          "topics": [
            "0xc7df5d57cebc855104b6814e67a49ad3e8e3f23a6c89013b8254de0c7a13c320",
            "0x4cc989b453367f187a50c934316393cfa6f43f8ea4b7f790047221e3af31d717",
            "0x0000000000000000000000000000000000000000000000000000000000000012",
            "0x0000000000000000000000006946ee4de034c554efab9ca19cba358368aa7eb7"
          ],
          "data": "0x00000000000000000000000000000000000000000000000000000000000f424000000000000000000000000000000000000000000000000000000000000186a0",
          "blockHash": "0x0000000000000000000000000000000000000000000000000000000000000000",
          "blockNumber": "0x28a99f5",
          "blockTimestamp": "0x699f90cd",
          "transactionHash": "0x28d77f7c189cd6e4550a8df5edbde96b51f7c665dce4a716b249fdfc533fb03d",
          "transactionIndex": "0x8a",
          "logIndex": "0x2e2",
          "removed": false
        },
        {
          "address": "0x22c738ca7b87933949dedf66dc0d51f3f52f1bd6",
          "topics": [
            "0xc7df5d57cebc855104b6814e67a49ad3e8e3f23a6c89013b8254de0c7a13c320",
            "0x4cc989b453367f187a50c934316393cfa6f43f8ea4b7f790047221e3af31d717",
            "0x0000000000000000000000000000000000000000000000000000000000000013",
            "0x0000000000000000000000006946ee4de034c554efab9ca19cba358368aa7eb7"
          ],
          "data": "0x00000000000000000000000000000000000000000000000000000000000f424000000000000000000000000000000000000000000000000000000000000186a0",
          "blockHash": "0x0000000000000000000000000000000000000000000000000000000000000000",
          "blockNumber": "0x28a99f5",
          "blockTimestamp": "0x699f90cd",
          "transactionHash": "0x28d77f7c189cd6e4550a8df5edbde96b51f7c665dce4a716b249fdfc533fb03d",
          "transactionIndex": "0x8a",
          "logIndex": "0x2e3",
          "removed": false
        },
        {
          "address": "0x833589fcd6edb6e08f4c7c32d4f71b54bda02913",
          "topics": [
            "0x8c5be1e5ebec7d5bd14f71427d1e84f3dd0314c0f7b2291e5b200ac8c7c3b925",
            "0x0000000000000000000000003d5eadf1585dc98ed306c81214574f75a99e8290",
            "0x00000000000000000000000022c738ca7b87933949dedf66dc0d51f3f52f1bd6"
          ],
          "data": "0x0000000000000000000000000000000000000000000000000000000000000000",
          "blockHash": "0x0000000000000000000000000000000000000000000000000000000000000000",
          "blockNumber": "0x28a99f5",
          "blockTimestamp": "0x699f90cd",
          "transactionHash": "0x28d77f7c189cd6e4550a8df5edbde96b51f7c665dce4a716b249fdfc533fb03d",
          "transactionIndex": "0x8a",
          "logIndex": "0x2e4",
          "removed": false
        },
        {
          "address": "0x3d5eadf1585dc98ed306c81214574f75a99e8290",
          "topics": [
            "0x5828f2ef591ada690e9563594f7b2c69613558e6fc5dca4258d8e4b259469099",
            "0x000000000000000000000000516af52d0c629b5e378da4dc64ecb0744ce10109",
            "0x00000000000000000000000000000000000000000000000000000000000029f1",
            "0x0000000000000000000000006946ee4de034c554efab9ca19cba358368aa7eb7"
          ],
          "data": "0x000000000000000000000000000000000000000000000000000000000000001400000000000000000000000000000000000000000000000000000000001e8480",
          "blockHash": "0x0000000000000000000000000000000000000000000000000000000000000000",
          "blockNumber": "0x28a99f5",
          "blockTimestamp": "0x699f90cd",
          "transactionHash": "0x28d77f7c189cd6e4550a8df5edbde96b51f7c665dce4a716b249fdfc533fb03d",
          "transactionIndex": "0x8a",
          "logIndex": "0x2e5",
          "removed": false
        }
      ],
      "logsBloom": "0x260000001000008000401040008000020000020000000000000000000000800000000000400082000040000000001000020010000604800000b00000002501020200301400000008000000880002000000020000040c0000000000000002000108801000020000000000000000000804028000104000000000020010040000000080400400001a0001400000000004100800190800000000000100020100000002000000000000000020014004000000000000000080006400200008140040004400100300000001040004000000000400200000800000000000010000007022001000120000000000000000004000000000000000c000040000000000800000",
      "type": "0x2",
      "transactionHash": "0x28d77f7c189cd6e4550a8df5edbde96b51f7c665dce4a716b249fdfc533fb03d",
      "transactionIndex": "0x8a",
      "blockHash": "0x0000000000000000000000000000000000000000000000000000000000000000",
      "blockNumber": "0x28a99f5",
      "gasUsed": "0x2b9655",
      "effectiveGasPrice": "0x63b279",
      "blobGasUsed": "0x9325",
      "from": "0x6946ee4de034c554efab9ca19cba358368aa7eb7",
      "to": "0x3d5eadf1585dc98ed306c81214574f75a99e8290",
      "contractAddress": null,
      "daFootprintGasScalar": "0x8b",
      "l1BaseFeeScalar": "0x8dd",
      "l1BlobBaseFee": "0x8d5287",
      "l1BlobBaseFeeScalar": "0x101c12",
      "l1Fee": "0x967fb553",
      "l1GasPrice": "0x13936feb",
      "l1GasUsed": "0x10f1"
    }
  ],
  "libraries": [],
  "pending": [],
  "returns": {},
  "timestamp": 1772064972411,
  "chain": 8453,
  "commit": "1b3fa69"
}