{
  "transactions": [
    {
      "hash": null,
      "transactionType": "CALL",
      "contractName": null,
      "contractAddress": "0xe52de1801c10cf709cc8e62d43d783afe984b510",
      "function": "flaunch((string,string,string,uint256,uint256,uint256,address,uint24,uint256,bytes,bytes),address,bytes,(bytes32,string,uint256),(uint256,uint256,uint256,bytes32,string),(address,address,bytes,bytes))",
      "arguments": [
        "(DIOGE, DIOGE, data:application/json;base64,eyJuYW1lIjoiRElPR0UiLCJkZXNjcmlwdGlvbiI6IlRoZSBkb2dlIHRoYXQgZ2l2ZXMgemVybyBmKmNrcy4gT24gRmxhdW5jaC4gMTAwIHNlYXRzLiAxIHdpbm5lci4iLCJpbWFnZSI6Imh0dHBzOi8vYWdlbnR0di5saXZlL2Rpb2dlLmpwZyIsImV4dGVybmFsX3VybCI6Imh0dHBzOi8vdGFrZW92ZXIuZnVuIn0=, 50000000000000000000000000, 3600, 0, 0x6946Ee4dE034c554EFAb9Ca19CBA358368Aa7Eb7, 5000, 0, 0x000000000000000000000000000000000000000000000000000000003b9aca00, 0x)",
        "0x0000000000000000000000000000000000000000",
        "0x",
        "(0x0000000000000000000000000000000000000000000000000000000000000000, , 0)",
        "(0, 0, 0, 0x0000000000000000000000000000000000000000000000000000000000000000, )",
        "(0x0000000000000000000000000000000000000000, 0x0000000000000000000000000000000000000000, 0x, 0x)"
      ],
      "transaction": {
        "from": "0x6946ee4de034c554efab9ca19cba358368aa7eb7",
        "to": "0xe52de1801c10cf709cc8e62d43d783afe984b510",
        "gas": "0x23a847",
        "value": "0x0",
        "input": "0x9e5ffc2400000000000000000000000000000000000000000000000000000000000000c000000000000000000000000000000000000000000000000000000000000000000000000000000000000000000000000000000000000000000000000000000440000000000000000000000000000000000000000000000000000000000000046000000000000000000000000000000000000000000000000000000000000004e000000000000000000000000000000000000000000000000000000000000005a0000000000000000000000000000000000000000000000000000000000000016000000000000000000000000000000000000000000000000000000000000001a000000000000000000000000000000000000000000000000000000000000001e0000000000000000000000000000000000000000000295be96e640669720000000000000000000000000000000000000000000000000000000000000000000e1000000000000000000000000000000000000000000000000000000000000000000000000000000000000000006946ee4de034c554efab9ca19cba358368aa7eb70000000000000000000000000000000000000000000000000000000000001388000000000000000000000000000000000000000000000000000000000000000000000000000000000000000000000000000000000000000000000000000003200000000000000000000000000000000000000000000000000000000000000360000000000000000000000000000000000000000000000000000000000000000544494f4745000000000000000000000000000000000000000000000000000000000000000000000000000000000000000000000000000000000000000000000544494f47450000000000000000000000000000000000000000000000000000000000000000000000000000000000000000000000000000000000000000000109646174613a6170706c69636174696f6e2f6a736f6e3b6261736536342c65794a755957316c496a6f6952456c50523055694c434a6b5a584e6a636d6c7764476c7662694936496c526f5a53426b6232646c4948526f595851675a326c325a584d67656d56796279426d4b6d4e726379346754323467526d78686457356a614334674d54417749484e6c5958527a4c69417849486470626d356c636934694c434a706257466e5a534936496d68306448427a4f6938765957646c626e52306469357361585a6c4c3252706232646c4c6d70775a794973496d563464475679626d46735833567962434936496d68306448427a4f693876644746725a5739325a5849755a6e5675496e303d00000000000000000000000000000000000000000000000000000000000000000000000000000000000000000000000000000000000020000000000000000000000000000000000000000000000000000000003b9aca00000000000000000000000000000000000000000000000000000000000000000000000000000000000000000000000000000000000000000000000000000000000000000000000000000000000000000000000000000000000000000000000000000000000000000000000000000000000000000000000000000000000000006000000000000000000000000000000000000000000000000000000000000000000000000000000000000000000000000000000000000000000000000000000000000000000000000000000000000000000000000000000000000000000000000000000000000000000000000000000000000000000000000000000000000000000000000000000000000000000000000000000000000000000000000000000000000000000000000000000000000000000000000000000000000000000000000000000000000000000000000000000000000000000000000000000000000000a0000000000000000000000000000000000000000000000000000000000000000000000000000000000000000000000000000000000000000000000000000000000000000000000000000000000000000000000000000000000000000000000000000000000000000000000000000000000000000000000000000000000000008000000000000000000000000000000000000000000000000000000000000000a000000000000000000000000000000000000000000000000000000000000000000000000000000000000000000000000000000000000000000000000000000000",
        "nonce": "0x2d",
        "chainId": "0x2105"
      },
      "additionalContracts": [
        {
          "transactionType": "CREATE2",
          "contractName": null,
          "address": "0x02e943a4593c97f88e9fc8cae402184f025d318d",
          "initCode": "0x602c3d8160093d39f33d3d3d3d363d3d37363d73f1eeeeeeecd95e9eb2df58484ceed175acbd945c5af43d3d93803e602a57fd5bf3"
        },
        {
          "transactionType": "CREATE2",
          "contractName": null,
          "address": "0xebd2c8a2271f2daeba2e88c3d21273447f84042d",
          "initCode": "0x602c3d8160093d39f33d3d3d3d363d3d37363d737397390360bd9d559d9277e60d47b999337912325af43d3d93803e602a57fd5bf3"
        }
      ],
      "isFixedGasLimit": false
    },
    {
      "hash": null,
      "transactionType": "CALL",
      "contractName": null,
      "contractAddress": "0x516af52d0c629b5e378da4dc64ecb0744ce10109",
      "function": "approve(address,uint256)",
      "arguments": [
        "0x3d5EadF1585dC98eD306C81214574F75a99e8290",
        "10737"
      ],
      "transaction": {
        "from": "0x6946ee4de034c554efab9ca19cba358368aa7eb7",
        "to": "0x516af52d0c629b5e378da4dc64ecb0744ce10109",
        "gas": "0x10471",
        "value": "0x0",
        "input": "0x095ea7b30000000000000000000000003d5eadf1585dc98ed306c81214574f75a99e829000000000000000000000000000000000000000000000000000000000000029f1",
        "nonce": "0x2e",
        "chainId": "0x2105"
      },
      "additionalContracts": [],
      "isFixedGasLimit": false
    },
    {
      "hash": null,
      "transactionType": "CALL",
      "contractName": null,
      "contractAddress": "0x833589fcd6edb6e08f4c7c32d4f71b54bda02913",
      "function": "approve(address,uint256)",
      "arguments": [
        "0x3d5EadF1585dC98eD306C81214574F75a99e8290",
        "2000000"
      ],
      "transaction": {
        "from": "0x6946ee4de034c554efab9ca19cba358368aa7eb7",
        "to": "0x833589fcd6edb6e08f4c7c32d4f71b54bda02913",
        "gas": "0x12b1b",
        "value": "0x0",
        "input": "0x095ea7b30000000000000000000000003d5eadf1585dc98ed306c81214574f75a99e829000000000000000000000000000000000000000000000000000000000001e8480",
        "nonce": "0x2f",
        "chainId": "0x2105"
      },
      "additionalContracts": [],
      "isFixedGasLimit": false
    },
    {
      "hash": null,
      "transactionType": "CALL",
      "contractName": null,
      "contractAddress": "0x3d5eadf1585dc98ed306c81214574f75a99e8290",
      "function": "importWithSeats(address,uint256,(uint256,uint256,uint256)[])",
      "arguments": [
        "0x516af52D0c629B5E378DA4DC64Ecb0744cE10109",
        "10737",
        "[(0, 1000000, 100000), (1, 1000000, 100000), (2, 1000000, 100000), (3, 1000000, 100000), (4, 1000000, 100000), (5, 1000000, 100000), (6, 1000000, 100000), (7, 1000000, 100000), (8, 1000000, 100000), (9, 1000000, 100000), (10, 1000000, 100000), (11, 1000000, 100000), (12, 1000000, 100000), (13, 1000000, 100000), (14, 1000000, 100000), (15, 1000000, 100000), (16, 1000000, 100000), (17, 1000000, 100000), (18, 1000000, 100000), (19, 1000000, 100000)]"
      ],
      "transaction": {
        "from": "0x6946ee4de034c554efab9ca19cba358368aa7eb7",
        "to": "0x3d5eadf1585dc98ed306c81214574f75a99e8290",
        "gas": "0x3c3471",
        "value": "0x0",
        "input": "0xee770038000000000000000000000000516af52d0c629b5e378da4dc64ecb0744ce1010900000000000000000000000000000000000000000000000000000000000029f100000000000000000000000000000000000000000000000000000000000000600000000000000000000000000000000000000000000000000000000000000014000000000000000000000000000000000000000000000000000000000000000000000000000000000000000000000000000000000000000000000000000f424000000000000000000000000000000000000000000000000000000000000186a0000000000000000000000000000000000000000000000000000000000000000100000000000000000000000000000000000000000000000000000000000f424000000000000000000000000000000000000000000000000000000000000186a0000000000000000000000000000000000000000000000000000000000000000200000000000000000000000000000000000000000000000000000000000f424000000000000000000000000000000000000000000000000000000000000186a0000000000000000000000000000000000000000000000000000000000000000300000000000000000000000000000000000000000000000000000000000f424000000000000000000000000000000000000000000000000000000000000186a0000000000000000000000000000000000000000000000000000000000000000400000000000000000000000000000000000000000000000000000000000f424000000000000000000000000000000000000000000000000000000000000186a0000000000000000000000000000000000000000000000000000000000000000500000000000000000000000000000000000000000000000000000000000f424000000000000000000000000000000000000000000000000000000000000186a0000000000000000000000000000000000000000000000000000000000000000600000000000000000000000000000000000000000000000000000000000f424000000000000000000000000000000000000000000000000000000000000186a0000000000000000000000000000000000000000000000000000000000000000700000000000000000000000000000000000000000000000000000000000f424000000000000000000000000000000000000000000000000000000000000186a0000000000000000000000000000000000000000000000000000000000000000800000000000000000000000000000000000000000000000000000000000f424000000000000000000000000000000000000000000000000000000000000186a0000000000000000000000000000000000000000000000000000000000000000900000000000000000000000000000000000000000000000000000000000f424000000000000000000000000000000000000000000000000000000000000186a0000000000000000000000000000000000000000000000000000000000000000a00000000000000000000000000000000000000000000000000000000000f424000000000000000000000000000000000000000000000000000000000000186a0000000000000000000000000000000000000000000000000000000000000000b00000000000000000000000000000000000000000000000000000000000f424000000000000000000000000000000000000000000000000000000000000186a0000000000000000000000000000000000000000000000000000000000000000c00000000000000000000000000000000000000000000000000000000000f424000000000000000000000000000000000000000000000000000000000000186a0000000000000000000000000000000000000000000000000000000000000000d00000000000000000000000000000000000000000000000000000000000f424000000000000000000000000000000000000000000000000000000000000186a0000000000000000000000000000000000000000000000000000000000000000e00000000000000000000000000000000000000000000000000000000000f424000000000000000000000000000000000000000000000000000000000000186a0000000000000000000000000000000000000000000000000000000000000000f00000000000000000000000000000000000000000000000000000000000f424000000000000000000000000000000000000000000000000000000000000186a0000000000000000000000000000000000000000000000000000000000000001000000000000000000000000000000000000000000000000000000000000f424000000000000000000000000000000000000000000000000000000000000186a0000000000000000000000000000000000000000000000000000000000000001100000000000000000000000000000000000000000000000000000000000f424000000000000000000000000000000000000000000000000000000000000186a0000000000000000000000000000000000000000000000000000000000000001200000000000000000000000000000000000000000000000000000000000f424000000000000000000000000000000000000000000000000000000000000186a0000000000000000000000000000000000000000000000000000000000000001300000000000000000000000000000000000000000000000000000000000f424000000000000000000000000000000000000000000000000000000000000186a0",
        "nonce": "0x30",
        "chainId": "0x2105"
      },
      "additionalContracts": [],
      "isFixedGasLimit": false
    }
  ],
  "receipts": [],
  "libraries": [],
  "pending": [],
  "returns": {},
  "timestamp": 1772064882321,
  "chain": 8453,
  "commit": "1b3fa69"
}